{
  "contractName": "PayToCheck",
  "abi": [
    {
      "constant": true,
      "inputs": [],
      "name": "tokenContract",
      "outputs": [
        {
          "name": "",
          "type": "address"
        }
      ],
      "payable": false,
      "stateMutability": "view",
      "type": "function"
    },
    {
      "inputs": [
        {
          "name": "_sofaToken",
          "type": "address"
        }
      ],
      "payable": false,
      "stateMutability": "nonpayable",
      "type": "constructor"
    },
    {
      "constant": true,
      "inputs": [
        {
          "name": "nonce",
          "type": "uint256"
        }
      ],
      "name": "returnCheckState",
      "outputs": [
        {
          "name": "",
          "type": "uint8"
        }
      ],
      "payable": false,
      "stateMutability": "view",
      "type": "function"
    },
    {
      "constant": false,
      "inputs": [
        {
          "name": "amount",
          "type": "uint256"
        },
        {
          "name": "nonce",
          "type": "uint256"
        },
        {
          "name": "v",
          "type": "uint8"
        },
        {
          "name": "r",
          "type": "bytes32"
        },
        {
          "name": "s",
          "type": "bytes32"
        }
      ],
      "name": "claimPayment",
      "outputs": [],
      "payable": false,
      "stateMutability": "nonpayable",
      "type": "function"
    },
    {
      "constant": true,
      "inputs": [
        {
          "name": "add",
          "type": "address"
        },
        {
          "name": "amount",
          "type": "uint256"
        },
        {
          "name": "nonce",
          "type": "uint256"
        },
        {
          "name": "contractAddress",
          "type": "address"
        }
      ],
      "name": "recreateMsg",
      "outputs": [
        {
          "name": "",
          "type": "bytes32"
        }
      ],
      "payable": false,
      "stateMutability": "pure",
      "type": "function"
    },
    {
      "constant": true,
      "inputs": [
        {
          "name": "t",
          "type": "address"
        },
        {
          "name": "v",
          "type": "uint256"
        }
      ],
      "name": "testHash",
      "outputs": [
        {
          "name": "",
          "type": "bytes32"
        }
      ],
      "payable": false,
      "stateMutability": "pure",
      "type": "function"
    },
    {
      "constant": true,
      "inputs": [
        {
          "name": "h",
          "type": "bytes32"
        },
        {
          "name": "v",
          "type": "uint8"
        },
        {
          "name": "r",
          "type": "bytes32"
        },
        {
          "name": "s",
          "type": "bytes32"
        }
      ],
      "name": "testRecoveryNoPrefix",
      "outputs": [
        {
          "name": "",
          "type": "address"
        }
      ],
      "payable": false,
      "stateMutability": "pure",
      "type": "function"
    },
    {
      "constant": true,
      "inputs": [
        {
          "name": "h",
          "type": "bytes32"
        },
        {
          "name": "v",
          "type": "uint8"
        },
        {
          "name": "r",
          "type": "bytes32"
        },
        {
          "name": "s",
          "type": "bytes32"
        }
      ],
      "name": "testOwnerSigned",
      "outputs": [
        {
          "name": "",
          "type": "bool"
        }
      ],
      "payable": false,
      "stateMutability": "view",
      "type": "function"
    },
    {
      "constant": true,
      "inputs": [
        {
          "name": "h",
          "type": "bytes32"
        },
        {
          "name": "v",
          "type": "uint8"
        },
        {
          "name": "r",
          "type": "bytes32"
        },
        {
          "name": "s",
          "type": "bytes32"
        }
      ],
      "name": "testRecovery",
      "outputs": [
        {
          "name": "",
          "type": "address"
        }
      ],
      "payable": false,
      "stateMutability": "pure",
      "type": "function"
    },
    {
      "constant": false,
      "inputs": [],
      "name": "kill",
      "outputs": [],
      "payable": false,
      "stateMutability": "nonpayable",
      "type": "function"
    }
  ],
  "bytecode": "0x6080604052336000806101000a81548173ffffffffffffffffffffffffffffffffffffffff021916908373ffffffffffffffffffffffffffffffffffffffff16021790555034801561005057600080fd5b50604051602080610c608339810180604052602081101561007057600080fd5b810190808051906020019092919050505080600260006101000a81548173ffffffffffffffffffffffffffffffffffffffff021916908373ffffffffffffffffffffffffffffffffffffffff16021790555050610b8e806100d26000396000f3fe608060405234801561001057600080fd5b50600436106100935760003560e01c806355a373d61161006657806355a373d6146102165780639ac8b02b14610260578063b2e954ef146102ef578063bcabc7f514610351578063c28cf11d146103b857610093565b806301857261146100985780630242a5fc146100f1578063088ba4a51461018057806341c0e1b51461020c575b600080fd5b6100ef600480360360a08110156100ae57600080fd5b810190808035906020019092919080359060200190929190803560ff1690602001909291908035906020019092919080359060200190929190505050610408565b005b61013e6004803603608081101561010757600080fd5b8101908080359060200190929190803560ff16906020019092919080359060200190929190803590602001909291905050506106b4565b604051808273ffffffffffffffffffffffffffffffffffffffff1673ffffffffffffffffffffffffffffffffffffffff16815260200191505060405180910390f35b6101f66004803603608081101561019657600080fd5b81019080803573ffffffffffffffffffffffffffffffffffffffff1690602001909291908035906020019092919080359060200190929190803573ffffffffffffffffffffffffffffffffffffffff1690602001909291905050506107e7565b6040518082815260200191505060405180910390f35b610214610890565b005b61021e61096b565b604051808273ffffffffffffffffffffffffffffffffffffffff1673ffffffffffffffffffffffffffffffffffffffff16815260200191505060405180910390f35b6102ad6004803603608081101561027657600080fd5b8101908080359060200190929190803560ff1690602001909291908035906020019092919080359060200190929190505050610991565b604051808273ffffffffffffffffffffffffffffffffffffffff1673ffffffffffffffffffffffffffffffffffffffff16815260200191505060405180910390f35b61033b6004803603604081101561030557600080fd5b81019080803573ffffffffffffffffffffffffffffffffffffffff16906020019092919080359060200190929190505050610a09565b6040518082815260200191505060405180910390f35b61039e6004803603608081101561036757600080fd5b8101908080359060200190929190803560ff1690602001909291908035906020019092919080359060200190929190505050610a71565b604051808215151515815260200191505060405180910390f35b6103e4600480360360208110156103ce57600080fd5b8101908080359060200190929190505050610b38565b604051808260018111156103f457fe5b60ff16815260200191505060405180910390f35b836000600181111561041657fe5b6001600083815260200190815260200160002060009054906101000a900460ff16600181111561044257fe5b146104b5576040517f08c379a00000000000000000000000000000000000000000000000000000000081526004018080602001828103825260128152602001807f6e6f7420612076616c696465206e6f6e6365000000000000000000000000000081525060200191505060405180910390fd5b600180600087815260200190815260200160002060006101000a81548160ff021916908360018111156104e457fe5b021790555060006104f7338888306107e7565b90506000809054906101000a900473ffffffffffffffffffffffffffffffffffffffff1673ffffffffffffffffffffffffffffffffffffffff1661053d82878787610991565b73ffffffffffffffffffffffffffffffffffffffff16146105c6576040517f08c379a00000000000000000000000000000000000000000000000000000000081526004018080602001828103825260168152602001807f7369676e617475726520636865636b206661696c65640000000000000000000081525060200191505060405180910390fd5b600260009054906101000a900473ffffffffffffffffffffffffffffffffffffffff1673ffffffffffffffffffffffffffffffffffffffff1663a9059cbb33896040518363ffffffff1660e01b8152600401808373ffffffffffffffffffffffffffffffffffffffff1673ffffffffffffffffffffffffffffffffffffffff16815260200182815260200192505050602060405180830381600087803b15801561066f57600080fd5b505af1158015610683573d6000803e3d6000fd5b505050506040513d602081101561069957600080fd5b81019080805190602001909291905050505050505050505050565b600060606040518060400160405280601c81526020017f19457468657265756d205369676e6564204d6573736167653a0a3332000000008152509050600081876040516020018083805190602001908083835b6020831061072a5780518252602082019150602081019050602083039250610707565b6001836020036101000a03801982511681845116808217855250505050505090500182815260200192505050604051602081830303815290604052805190602001209050600060018288888860405160008152602001604052604051808581526020018460ff1660ff1681526020018381526020018281526020019450505050506020604051602081039080840390855afa1580156107cd573d6000803e3d6000fd5b505050602060405103519050809350505050949350505050565b600084848484604051602001808573ffffffffffffffffffffffffffffffffffffffff1673ffffffffffffffffffffffffffffffffffffffff1660601b81526014018481526020018381526020018273ffffffffffffffffffffffffffffffffffffffff1673ffffffffffffffffffffffffffffffffffffffff1660601b8152601401945050505050604051602081830303815290604052805190602001209050949350505050565b6000809054906101000a900473ffffffffffffffffffffffffffffffffffffffff1673ffffffffffffffffffffffffffffffffffffffff163373ffffffffffffffffffffffffffffffffffffffff1614610952576040517f08c379a00000000000000000000000000000000000000000000000000000000081526004018080602001828103825260168152602001807f6f6e6c79206f776e656420697320616c6c6f7765642e0000000000000000000081525060200191505060405180910390fd5b3373ffffffffffffffffffffffffffffffffffffffff16ff5b600260009054906101000a900473ffffffffffffffffffffffffffffffffffffffff1681565b60008060018686868660405160008152602001604052604051808581526020018460ff1660ff1681526020018381526020018281526020019450505050506020604051602081039080840390855afa1580156109f1573d6000803e3d6000fd5b50505060206040510351905080915050949350505050565b60008282604051602001808373ffffffffffffffffffffffffffffffffffffffff1673ffffffffffffffffffffffffffffffffffffffff1660601b81526014018281526020019250505060405160208183030381529060405280519060200120905092915050565b60008060018686868660405160008152602001604052604051808581526020018460ff1660ff1681526020018381526020018281526020019450505050506020604051602081039080840390855afa158015610ad1573d6000803e3d6000fd5b5050506020604051035190506000809054906101000a900473ffffffffffffffffffffffffffffffffffffffff1673ffffffffffffffffffffffffffffffffffffffff168173ffffffffffffffffffffffffffffffffffffffff1614915050949350505050565b60006001600083815260200190815260200160002060009054906101000a900460ff16905091905056fea165627a7a723058202dc35a1e0db1303cafbdf679e9acc9e3cc31574543caaf12f8a1e31d3eab2dd90029",
  "source": "pragma solidity >=0.4.24 <0.7.0;\r\n\r\nimport \"./SofaToken.sol\";\r\n\r\ncontract PayToCheck {\r\n    address owner = msg.sender;\r\n    mapping(uint256 => checkState) usedNonces;\r\n    SofaToken public tokenContract;\r\n    enum checkState {valid,checked}\r\n\r\n    constructor(SofaToken _sofaToken) public {\r\n        tokenContract = _sofaToken;\r\n    }\r\n\r\n    modifier onlyOwner(){\r\n            require(msg.sender == owner,\"only owned is allowed.\");\r\n            _;\r\n    }\r\n    modifier nonceValid(uint256 nonce){\r\n           require(usedNonces[nonce]==checkState.valid,\"not a valide nonce\");\r\n           _;\r\n    }\r\n    function returnCheckState(uint256 nonce) external view returns (checkState){\r\n        return usedNonces[nonce];\r\n    }\r\n    function claimPayment(uint256 amount, uint256 nonce,  uint8 v, bytes32 r, bytes32 s) public nonceValid(nonce){\r\n        usedNonces[nonce] = checkState.checked;\r\n        // this recreates the message that was signed on the client\r\n        bytes32 message = recreateMsg(msg.sender, amount, nonce,address(this));\r\n        require(testRecoveryNoPrefix(message,v,r,s) == owner,\"signature check failed\");\r\n        tokenContract.transfer(msg.sender,amount);\r\n    }\r\n    function recreateMsg(address add, uint256 amount, uint256 nonce,address contractAddress) public pure returns (bytes32){\r\n        return keccak256(abi.encodePacked(add, amount, nonce,contractAddress));\r\n    }\r\n    function testHash(address t,uint v) external pure returns (bytes32){\r\n        return  keccak256(abi.encodePacked(t,v));\r\n    }\r\n    function testRecoveryNoPrefix(bytes32 h, uint8 v, bytes32 r, bytes32 s) public pure returns (address) {\r\n        address addr = ecrecover(h, v, r, s);\r\n        return addr;\r\n    }\r\n\r\n    function testOwnerSigned(bytes32 h, uint8 v, bytes32 r, bytes32 s) public view returns (bool){\r\n        address addr = ecrecover(h, v, r, s);\r\n        return addr==owner;\r\n    }\r\n\r\n    function testRecovery(bytes32 h, uint8 v, bytes32 r, bytes32 s) public pure returns (address) {\r\n        bytes memory prefix = \"\\x19Ethereum Signed Message:\\n32\";\r\n        bytes32 t = keccak256(abi.encodePacked(prefix,h));\r\n        address addr = ecrecover(t, v, r, s);\r\n        return addr;\r\n    }\r\n    function kill() public onlyOwner{\r\n        selfdestruct(msg.sender);\r\n    }\r\n}",
  "sourcePath": "D:/workspace/ethereum_projects/micropayment_token/contracts/PayToCheck.sol",
  "compiler": {
    "name": "solc",
    "version": "0.5.8+commit.23d335f2.Emscripten.clang"
  },
  "schemaVersion": "3.0.11",
  "updatedAt": "2019-07-25T08:40:49.879Z",
  "devdoc": {
    "methods": {}
  },
  "userdoc": {
    "methods": {}
  }
}