{
  "contractName": "SofaCrowdSale",
  "abi": [
    {
      "constant": true,
      "inputs": [],
      "name": "tokenSold",
      "outputs": [
        {
          "name": "",
          "type": "uint256"
        }
      ],
      "payable": false,
      "stateMutability": "view",
      "type": "function"
    },
    {
      "constant": true,
      "inputs": [],
      "name": "tokenContract",
      "outputs": [
        {
          "name": "",
          "type": "address"
        }
      ],
      "payable": false,
      "stateMutability": "view",
      "type": "function"
    },
    {
      "constant": true,
      "inputs": [],
      "name": "tokenPrice",
      "outputs": [
        {
          "name": "",
          "type": "uint256"
        }
      ],
      "payable": false,
      "stateMutability": "view",
      "type": "function"
    },
    {
      "constant": true,
      "inputs": [],
      "name": "saleOpen",
      "outputs": [
        {
          "name": "",
          "type": "bool"
        }
      ],
      "payable": false,
      "stateMutability": "view",
      "type": "function"
    },
    {
      "inputs": [
        {
          "name": "_sofaToken",
          "type": "address"
        },
        {
          "name": "_initalPrice",
          "type": "uint256"
        }
      ],
      "payable": false,
      "stateMutability": "nonpayable",
      "type": "constructor"
    },
    {
      "anonymous": false,
      "inputs": [
        {
          "indexed": false,
          "name": "_buyer",
          "type": "address"
        },
        {
          "indexed": false,
          "name": "amount",
          "type": "uint256"
        }
      ],
      "name": "Sell",
      "type": "event"
    },
    {
      "constant": false,
      "inputs": [
        {
          "name": "_tokenPrice",
          "type": "uint256"
        }
      ],
      "name": "resetTokenPrice",
      "outputs": [],
      "payable": false,
      "stateMutability": "nonpayable",
      "type": "function"
    },
    {
      "constant": false,
      "inputs": [],
      "name": "openForSale",
      "outputs": [],
      "payable": false,
      "stateMutability": "nonpayable",
      "type": "function"
    },
    {
      "constant": false,
      "inputs": [
        {
          "name": "_numberOfTokens",
          "type": "uint256"
        }
      ],
      "name": "buyToken",
      "outputs": [],
      "payable": true,
      "stateMutability": "payable",
      "type": "function"
    },
    {
      "constant": false,
      "inputs": [],
      "name": "endSale",
      "outputs": [],
      "payable": false,
      "stateMutability": "nonpayable",
      "type": "function"
    }
  ],
  "bytecode": "0x608060405234801561001057600080fd5b50604051604080610e8d8339810180604052604081101561003057600080fd5b810190808051906020019092919080519060200190929190505050336000806101000a81548173ffffffffffffffffffffffffffffffffffffffff021916908373ffffffffffffffffffffffffffffffffffffffff16021790555081600160006101000a81548173ffffffffffffffffffffffffffffffffffffffff021916908373ffffffffffffffffffffffffffffffffffffffff160217905550806003819055505050610da9806100e46000396000f3fe60806040526004361061007b5760003560e01c806355a373d61161004e57806355a373d6146101075780637ff9b5961461015e57806399288dbb14610189578063fc5abac1146101b85761007b565b806326138c36146100805780632d296bf114610097578063380d831b146100c5578063519ee19e146100dc575b600080fd5b34801561008c57600080fd5b506100956101f3565b005b6100c3600480360360208110156100ad57600080fd5b8101908080359060200190929190505050610355565b005b3480156100d157600080fd5b506100da610766565b005b3480156100e857600080fd5b506100f1610afa565b6040518082815260200191505060405180910390f35b34801561011357600080fd5b5061011c610b00565b604051808273ffffffffffffffffffffffffffffffffffffffff1673ffffffffffffffffffffffffffffffffffffffff16815260200191505060405180910390f35b34801561016a57600080fd5b50610173610b26565b6040518082815260200191505060405180910390f35b34801561019557600080fd5b5061019e610b2c565b604051808215151515815260200191505060405180910390f35b3480156101c457600080fd5b506101f1600480360360208110156101db57600080fd5b8101908080359060200190929190505050610b3f565b005b6000809054906101000a900473ffffffffffffffffffffffffffffffffffffffff1673ffffffffffffffffffffffffffffffffffffffff163373ffffffffffffffffffffffffffffffffffffffff16146102b5576040517f08c379a00000000000000000000000000000000000000000000000000000000081526004018080602001828103825260198152602001807f6f7065726174696f6e20646f206e6f7420617070726f7665640000000000000081525060200191505060405180910390fd5b600460009054906101000a900460ff1615610338576040517f08c379a00000000000000000000000000000000000000000000000000000000081526004018080602001828103825260148152602001807f73616c6520697320616c7265616479206f70656e00000000000000000000000081525060200191505060405180910390fd5b6001600460006101000a81548160ff021916908315150217905550565b600460009054906101000a900460ff166103d7576040517f08c379a000000000000000000000000000000000000000000000000000000000815260040180806020018281038252600d8152602001807f6d61726b657420636c6f7365640000000000000000000000000000000000000081525060200191505060405180910390fd5b6103ec60035482610c6490919063ffffffff16565b3414610460576040517f08c379a00000000000000000000000000000000000000000000000000000000081526004018080602001828103825260188152602001807f706c6561736520726563616c63756c6174652076616c7565000000000000000081525060200191505060405180910390fd5b80600160009054906101000a900473ffffffffffffffffffffffffffffffffffffffff1673ffffffffffffffffffffffffffffffffffffffff166370a08231306040518263ffffffff1660e01b8152600401808273ffffffffffffffffffffffffffffffffffffffff1673ffffffffffffffffffffffffffffffffffffffff16815260200191505060206040518083038186803b15801561050057600080fd5b505afa158015610514573d6000803e3d6000fd5b505050506040513d602081101561052a57600080fd5b81019080805190602001909291905050501015610592576040517f08c379a0000000000000000000000000000000000000000000000000000000008152600401808060200182810382526028815260200180610ceb6028913960400191505060405180910390fd5b600160009054906101000a900473ffffffffffffffffffffffffffffffffffffffff1673ffffffffffffffffffffffffffffffffffffffff1663a9059cbb33836040518363ffffffff1660e01b8152600401808373ffffffffffffffffffffffffffffffffffffffff1673ffffffffffffffffffffffffffffffffffffffff16815260200182815260200192505050602060405180830381600087803b15801561063b57600080fd5b505af115801561064f573d6000803e3d6000fd5b505050506040513d602081101561066557600080fd5b81019080805190602001909291905050506106e8576040517f08c379a00000000000000000000000000000000000000000000000000000000081526004018080602001828103825260128152602001807f7472616e73616374696f6e206661696c6564000000000000000000000000000081525060200191505060405180910390fd5b806002600082825401925050819055507f5e5e995ce3133561afceaa51a9a154d5db228cd7525d34df5185582c18d3df093382604051808373ffffffffffffffffffffffffffffffffffffffff1673ffffffffffffffffffffffffffffffffffffffff1681526020018281526020019250505060405180910390a150565b600460009054906101000a900460ff166107e8576040517f08c379a000000000000000000000000000000000000000000000000000000000815260040180806020018281038252600d8152602001807f6d61726b657420636c6f7365640000000000000000000000000000000000000081525060200191505060405180910390fd5b6000809054906101000a900473ffffffffffffffffffffffffffffffffffffffff1673ffffffffffffffffffffffffffffffffffffffff163373ffffffffffffffffffffffffffffffffffffffff16146108aa576040517f08c379a00000000000000000000000000000000000000000000000000000000081526004018080602001828103825260198152602001807f6f7065726174696f6e20646f206e6f7420617070726f7665640000000000000081525060200191505060405180910390fd5b600160009054906101000a900473ffffffffffffffffffffffffffffffffffffffff1673ffffffffffffffffffffffffffffffffffffffff1663a9059cbb6000809054906101000a900473ffffffffffffffffffffffffffffffffffffffff16600160009054906101000a900473ffffffffffffffffffffffffffffffffffffffff1673ffffffffffffffffffffffffffffffffffffffff166370a08231306040518263ffffffff1660e01b8152600401808273ffffffffffffffffffffffffffffffffffffffff1673ffffffffffffffffffffffffffffffffffffffff16815260200191505060206040518083038186803b1580156109a957600080fd5b505afa1580156109bd573d6000803e3d6000fd5b505050506040513d60208110156109d357600080fd5b81019080805190602001909291905050506040518363ffffffff1660e01b8152600401808373ffffffffffffffffffffffffffffffffffffffff1673ffffffffffffffffffffffffffffffffffffffff16815260200182815260200192505050602060405180830381600087803b158015610a4d57600080fd5b505af1158015610a61573d6000803e3d6000fd5b505050506040513d6020811015610a7757600080fd5b8101908080519060200190929190505050610add576040517f08c379a0000000000000000000000000000000000000000000000000000000008152600401808060200182810382526026815260200180610d346026913960400191505060405180910390fd5b6000600460006101000a81548160ff021916908315150217905550565b60025481565b600160009054906101000a900473ffffffffffffffffffffffffffffffffffffffff1681565b60035481565b600460009054906101000a900460ff1681565b6000809054906101000a900473ffffffffffffffffffffffffffffffffffffffff1673ffffffffffffffffffffffffffffffffffffffff163373ffffffffffffffffffffffffffffffffffffffff1614610c01576040517f08c379a00000000000000000000000000000000000000000000000000000000081526004018080602001828103825260198152602001807f6f7065726174696f6e20646f206e6f7420617070726f7665640000000000000081525060200191505060405180910390fd5b60008111610c5a576040517f08c379a0000000000000000000000000000000000000000000000000000000008152600401808060200182810382526024815260200180610d5a6024913960400191505060405180910390fd5b8060038190555050565b600080831415610c775760009050610ce4565b6000828402905082848281610c8857fe5b0414610cdf576040517f08c379a0000000000000000000000000000000000000000000000000000000008152600401808060200182810382526021815260200180610d136021913960400191505060405180910390fd5b809150505b9291505056fe72657175697265206d6f726520746f6b656e207468616e20746869732063616e2070726f76696465536166654d6174683a206d756c7469706c69636174696f6e206f766572666c6f776661696c656420746f2072657475726e20756e736f6c6420746f6b656e20746f2061646d696e746f6b656e50726963652073686f756c6420626520706f73697469766520696e20576569a165627a7a72305820c688100ba5fb720b953b1aee3a7ac9811f0abad555e3d4b88016d763e89db7dc0029",
  "source": "pragma solidity >=0.4.24 <0.7.0;\r\n\r\nimport \"./SofaToken.sol\";\r\n\r\ncontract SofaCrowdSale {\r\n    using SafeMath for uint256;\r\n    address private admin;\r\n    SofaToken public tokenContract;\r\n    uint256 public tokenSold;\r\n    uint256 public tokenPrice;\r\n    bool public saleOpen;\r\n\r\n    event Sell(address _buyer, uint256 amount);\r\n\r\n    constructor(SofaToken _sofaToken, uint256 _initalPrice) public {\r\n        admin = msg.sender;\r\n        tokenContract = _sofaToken;\r\n        tokenPrice = _initalPrice;\r\n    }\r\n\r\n    modifier openToMarket(){\r\n        require(saleOpen, \"market closed\");\r\n        _;\r\n    }\r\n\r\n    modifier isAdmin(){\r\n        require(msg.sender==admin, \"operation do not approved\");\r\n        _;\r\n    }\r\n\r\n    function resetTokenPrice(uint256 _tokenPrice) public isAdmin{\r\n        require(_tokenPrice > 0, \"tokenPrice should be positive in Wei\");\r\n        tokenPrice = _tokenPrice;\r\n    }\r\n\r\n    function openForSale() public isAdmin {\r\n        require(!saleOpen, \"sale is already open\");\r\n        saleOpen = true;\r\n    }\r\n\r\n    function buyToken(uint256 _numberOfTokens) public payable openToMarket{\r\n        require(msg.value == _numberOfTokens.mul(tokenPrice),\"please recalculate value\");\r\n        require(tokenContract.balanceOf(address(this)) >= _numberOfTokens, \"require more token than this can provide\");\r\n        require(tokenContract.transfer(msg.sender,_numberOfTokens), \"transaction failed\");\r\n        tokenSold += _numberOfTokens;\r\n        emit Sell(msg.sender,_numberOfTokens);\r\n    }\r\n\r\n    function endSale() public openToMarket isAdmin{\r\n        require(tokenContract.transfer(admin,tokenContract.balanceOf(address(this))),\"failed to return unsold token to admin\");\r\n        saleOpen = false;\r\n    }\r\n\r\n}",
  "sourcePath": "D:/workspace/ethereum_projects/micropayment_token/contracts/SofaCrowdSale.sol",
  "compiler": {
    "name": "solc",
    "version": "0.5.8+commit.23d335f2.Emscripten.clang"
  },
  "schemaVersion": "3.0.11",
  "updatedAt": "2019-07-25T08:40:49.409Z",
  "devdoc": {
    "methods": {}
  },
  "userdoc": {
    "methods": {}
  }
}